{
  "contractName": "Faucet",
  "abi": [
    {
      "anonymous": false,
      "inputs": [
        {
          "indexed": false,
          "internalType": "uint256",
          "name": "status",
          "type": "uint256"
        }
      ],
      "name": "VOTE_MSG",
      "type": "event"
    },
    {
      "constant": false,
      "inputs": [
        {
          "internalType": "string",
          "name": "petName",
          "type": "string"
        },
        {
          "internalType": "uint256",
          "name": "id",
          "type": "uint256"
        },
        {
          "internalType": "uint256",
          "name": "age",
          "type": "uint256"
        },
        {
          "internalType": "uint256",
          "name": "breed",
          "type": "uint256"
        },
        {
          "internalType": "string",
          "name": "city",
          "type": "string"
        },
        {
          "internalType": "uint256",
          "name": "location",
          "type": "uint256"
        },
        {
          "internalType": "uint256",
          "name": "pet_votes",
          "type": "uint256"
        }
      ],
      "name": "insert_pet",
      "outputs": [],
      "payable": false,
      "stateMutability": "nonpayable",
      "type": "function"
    },
    {
      "constant": false,
      "inputs": [
        {
          "internalType": "string",
          "name": "petName",
          "type": "string"
        },
        {
          "internalType": "uint256",
          "name": "age",
          "type": "uint256"
        },
        {
          "internalType": "uint256",
          "name": "breed",
          "type": "uint256"
        },
        {
          "internalType": "string",
          "name": "city",
          "type": "string"
        },
        {
          "internalType": "uint256",
          "name": "location",
          "type": "uint256"
        }
      ],
      "name": "register_new_pet",
      "outputs": [
        {
          "internalType": "uint256",
          "name": "",
          "type": "uint256"
        }
      ],
      "payable": true,
      "stateMutability": "payable",
      "type": "function"
    },
    {
      "constant": false,
      "inputs": [
        {
          "internalType": "uint256",
          "name": "id",
          "type": "uint256"
        }
      ],
      "name": "adopt",
      "outputs": [],
      "payable": false,
      "stateMutability": "nonpayable",
      "type": "function"
    },
    {
      "constant": false,
      "inputs": [
        {
          "internalType": "uint256",
          "name": "id",
          "type": "uint256"
        }
      ],
      "name": "return_pet",
      "outputs": [],
      "payable": true,
      "stateMutability": "payable",
      "type": "function"
    },
    {
      "constant": false,
      "inputs": [
        {
          "internalType": "uint256",
          "name": "id",
          "type": "uint256"
        }
      ],
      "name": "vote_unvote",
      "outputs": [
        {
          "internalType": "uint256",
          "name": "",
          "type": "uint256"
        }
      ],
      "payable": false,
      "stateMutability": "nonpayable",
      "type": "function"
    },
    {
      "constant": true,
      "inputs": [
        {
          "internalType": "uint256",
          "name": "id",
          "type": "uint256"
        }
      ],
      "name": "get_pet_vote",
      "outputs": [
        {
          "internalType": "uint256",
          "name": "",
          "type": "uint256"
        }
      ],
      "payable": false,
      "stateMutability": "view",
      "type": "function"
    },
    {
      "constant": true,
      "inputs": [
        {
          "internalType": "uint256",
          "name": "id",
          "type": "uint256"
        }
      ],
      "name": "is_voted",
      "outputs": [
        {
          "internalType": "bool",
          "name": "",
          "type": "bool"
        }
      ],
      "payable": false,
      "stateMutability": "view",
      "type": "function"
    },
    {
      "constant": true,
      "inputs": [],
      "name": "get_voted_pets",
      "outputs": [
        {
          "internalType": "bool[]",
          "name": "",
          "type": "bool[]"
        }
      ],
      "payable": false,
      "stateMutability": "view",
      "type": "function"
    },
    {
      "constant": true,
      "inputs": [],
      "name": "getAdopters",
      "outputs": [
        {
          "internalType": "address[]",
          "name": "",
          "type": "address[]"
        }
      ],
      "payable": false,
      "stateMutability": "view",
      "type": "function"
    },
    {
      "constant": true,
      "inputs": [
        {
          "internalType": "uint256",
          "name": "id",
          "type": "uint256"
        }
      ],
      "name": "is_adopted",
      "outputs": [
        {
          "internalType": "bool",
          "name": "",
          "type": "bool"
        }
      ],
      "payable": false,
      "stateMutability": "view",
      "type": "function"
    },
    {
      "constant": true,
      "inputs": [
        {
          "internalType": "uint256",
          "name": "id",
          "type": "uint256"
        }
      ],
      "name": "getPetById",
      "outputs": [
        {
          "internalType": "string",
          "name": "",
          "type": "string"
        },
        {
          "internalType": "uint256",
          "name": "",
          "type": "uint256"
        },
        {
          "internalType": "uint256",
          "name": "",
          "type": "uint256"
        },
        {
          "internalType": "string",
          "name": "",
          "type": "string"
        },
        {
          "internalType": "uint256",
          "name": "",
          "type": "uint256"
        },
        {
          "internalType": "uint256",
          "name": "",
          "type": "uint256"
        }
      ],
      "payable": false,
      "stateMutability": "view",
      "type": "function"
    },
    {
      "constant": true,
      "inputs": [],
      "name": "getMyPets",
      "outputs": [
        {
          "internalType": "bool[]",
          "name": "",
          "type": "bool[]"
        }
      ],
      "payable": false,
      "stateMutability": "view",
      "type": "function"
    },
    {
      "constant": true,
      "inputs": [],
      "name": "get_info",
      "outputs": [
        {
          "internalType": "uint256",
          "name": "",
          "type": "uint256"
        }
      ],
      "payable": false,
      "stateMutability": "view",
      "type": "function"
    },
    {
      "constant": true,
      "inputs": [
        {
          "internalType": "uint256",
          "name": "adopted",
          "type": "uint256"
        },
        {
          "internalType": "uint256",
          "name": "age",
          "type": "uint256"
        },
        {
          "internalType": "uint256",
          "name": "breed",
          "type": "uint256"
        },
        {
          "internalType": "uint256",
          "name": "location",
          "type": "uint256"
        },
        {
          "internalType": "uint256",
          "name": "own_by_me",
          "type": "uint256"
        }
      ],
      "name": "filter_pets",
      "outputs": [
        {
          "internalType": "bool[]",
          "name": "",
          "type": "bool[]"
        }
      ],
      "payable": false,
      "stateMutability": "view",
      "type": "function"
    }
  ],
  "bytecode": "0x60806040526000805534801561001457600080fd5b5061187c806100246000396000f3fe6080604052600436106100dd5760003560e01c8063c79faf4f1161007f578063db301c7111610059578063db301c7114610537578063dcd04d4e14610586578063e0f26a21146105f2578063fcbefbbf14610783576100dd565b8063c79faf4f1461037a578063cb920509146103a8578063cd64e3f3146104e4576100dd565b80636e7a232b116100bb5780636e7a232b146102315780638588b2c5146102845780638957961c146102bf578063a36c73061461030e576100dd565b806320a15ee0146100e25780633de4eb171461019a5780636058348814610206575b600080fd5b3480156100ee57600080fd5b50610143600480360360a081101561010557600080fd5b810190808035906020019092919080359060200190929190803590602001909291908035906020019092919080359060200190929190505050610907565b6040518080602001828103825283818151815260200191508051906020019060200280838360005b8381101561018657808201518184015260208101905061016b565b505050509050019250505060405180910390f35b3480156101a657600080fd5b506101af610d10565b6040518080602001828103825283818151815260200191508051906020019060200280838360005b838110156101f25780820151818401526020810190506101d7565b505050509050019250505060405180910390f35b34801561021257600080fd5b5061021b610de9565b6040518082815260200191505060405180910390f35b34801561023d57600080fd5b5061026a6004803603602081101561025457600080fd5b8101908080359060200190929190505050610df2565b604051808215151515815260200191505060405180910390f35b34801561029057600080fd5b506102bd600480360360208110156102a757600080fd5b8101908080359060200190929190505050610e59565b005b3480156102cb57600080fd5b506102f8600480360360208110156102e257600080fd5b8101908080359060200190929190505050610eb1565b6040518082815260200191505060405180910390f35b34801561031a57600080fd5b50610323610ed1565b6040518080602001828103825283818151815260200191508051906020019060200280838360005b8381101561036657808201518184015260208101905061034b565b505050509050019250505060405180910390f35b6103a66004803603602081101561039057600080fd5b8101908080359060200190929190505050610fb8565b005b3480156103b457600080fd5b506103e1600480360360208110156103cb57600080fd5b8101908080359060200190929190505050611011565b604051808060200187815260200186815260200180602001858152602001848152602001838103835289818151815260200191508051906020019080838360005b8381101561043d578082015181840152602081019050610422565b50505050905090810190601f16801561046a5780820380516001836020036101000a031916815260200191505b50838103825286818151815260200191508051906020019080838360005b838110156104a3578082015181840152602081019050610488565b50505050905090810190601f1680156104d05780820380516001836020036101000a031916815260200191505b509850505050505050505060405180910390f35b3480156104f057600080fd5b5061051d6004803603602081101561050757600080fd5b8101908080359060200190929190505050611246565b604051808215151515815260200191505060405180910390f35b34801561054357600080fd5b506105706004803603602081101561055a57600080fd5b81019080803590602001909291905050506112c5565b6040518082815260200191505060405180910390f35b34801561059257600080fd5b5061059b6114dc565b6040518080602001828103825283818151815260200191508051906020019060200280838360005b838110156105de5780820151818401526020810190506105c3565b505050509050019250505060405180910390f35b3480156105fe57600080fd5b50610781600480360360e081101561061557600080fd5b810190808035906020019064010000000081111561063257600080fd5b82018360208201111561064457600080fd5b8035906020019184600183028401116401000000008311171561066657600080fd5b91908080601f016020809104026020016040519081016040528093929190818152602001838380828437600081840152601f19601f820116905080830192505050505050509192919290803590602001909291908035906020019092919080359060200190929190803590602001906401000000008111156106e757600080fd5b8201836020820111156106f957600080fd5b8035906020019184600183028401116401000000008311171561071b57600080fd5b91908080601f016020809104026020016040519081016040528093929190818152602001838380828437600081840152601f19601f82011690508083019250505050505050919291929080359060200190929190803590602001909291905050506115b4565b005b6108f1600480360360a081101561079957600080fd5b81019080803590602001906401000000008111156107b657600080fd5b8201836020820111156107c857600080fd5b803590602001918460018302840111640100000000831117156107ea57600080fd5b91908080601f016020809104026020016040519081016040528093929190818152602001838380828437600081840152601f19601f82011690508083019250505050505050919291929080359060200190929190803590602001909291908035906020019064010000000081111561086157600080fd5b82018360208201111561087357600080fd5b8035906020019184600183028401116401000000008311171561089557600080fd5b91908080601f016020809104026020016040519081016040528093929190818152602001838380828437600081840152601f19601f82011690508083019250505050505050919291929080359060200190929190505050611780565b6040518082815260200191505060405180910390f35b60608060005460405190808252806020026020018201604052801561093b5781602001602082028038833980820191505090505b50905060008090505b600054811015610d0257600182828151811061095c57fe5b6020026020010190151590811515815250506002881480156109e15750600073ffffffffffffffffffffffffffffffffffffffff166001600083815260200190815260200160002060010160009054906101000a900473ffffffffffffffffffffffffffffffffffffffff1673ffffffffffffffffffffffffffffffffffffffff1614155b80610a5a5750600188148015610a595750600073ffffffffffffffffffffffffffffffffffffffff166001600083815260200190815260200160002060010160009054906101000a900473ffffffffffffffffffffffffffffffffffffffff1673ffffffffffffffffffffffffffffffffffffffff16145b5b15610a84576000828281518110610a6d57fe5b602002602001019015159081151581525050610cf5565b60006005811115610a9157fe5b8714158015610ace5750866001600083815260200190815260200160002060010160149054906101000a900460ff166005811115610acb57fe5b14155b15610af8576000828281518110610ae157fe5b602002602001019015159081151581525050610cf5565b60006005811115610b0557fe5b8614158015610b425750856001600083815260200190815260200160002060010160159054906101000a900460ff166005811115610b3f57fe5b14155b15610b6c576000828281518110610b5557fe5b602002602001019015159081151581525050610cf5565b6000600d811115610b7957fe5b8514158015610bb65750846001600083815260200190815260200160002060030160009054906101000a900460ff16600d811115610bb357fe5b14155b15610be0576000828281518110610bc957fe5b602002602001019015159081151581525050610cf5565b600184148015610c5257503373ffffffffffffffffffffffffffffffffffffffff166001600083815260200190815260200160002060010160009054906101000a900473ffffffffffffffffffffffffffffffffffffffff1673ffffffffffffffffffffffffffffffffffffffff1614155b80610cca5750600284148015610cc957503373ffffffffffffffffffffffffffffffffffffffff166001600083815260200190815260200160002060010160009054906101000a900473ffffffffffffffffffffffffffffffffffffffff1673ffffffffffffffffffffffffffffffffffffffff16145b5b15610cf4576000828281518110610cdd57fe5b602002602001019015159081151581525050610cf5565b5b8080600101915050610944565b508091505095945050505050565b606080600054604051908082528060200260200182016040528015610d445781602001602082028038833980820191505090505b50905060008090505b600054811015610de1576001600082815260200190815260200160002060010160009054906101000a900473ffffffffffffffffffffffffffffffffffffffff16828281518110610d9a57fe5b602002602001019073ffffffffffffffffffffffffffffffffffffffff16908173ffffffffffffffffffffffffffffffffffffffff16815250508080600101915050610d4d565b508091505090565b60008054905090565b60006002600083815260200190815260200160002060003373ffffffffffffffffffffffffffffffffffffffff1673ffffffffffffffffffffffffffffffffffffffff16815260200190815260200160002060009054906101000a900460ff169050919050565b336001600083815260200190815260200160002060010160006101000a81548173ffffffffffffffffffffffffffffffffffffffff021916908373ffffffffffffffffffffffffffffffffffffffff16021790555050565b600060016000838152602001908152602001600020600401549050919050565b606080600054604051908082528060200260200182016040528015610f055781602001602082028038833980820191505090505b50905060008090505b600054811015610fb0573373ffffffffffffffffffffffffffffffffffffffff166001600083815260200190815260200160002060010160009054906101000a900473ffffffffffffffffffffffffffffffffffffffff1673ffffffffffffffffffffffffffffffffffffffff161415610fa3576001828281518110610f9057fe5b6020026020010190151590811515815250505b8080600101915050610f0e565b508091505090565b60006001600083815260200190815260200160002060010160006101000a81548173ffffffffffffffffffffffffffffffffffffffff021916908373ffffffffffffffffffffffffffffffffffffffff16021790555050565b60606000806060600080600054871061102957600080fd5b600160008881526020019081526020016000206000016001600089815260200190815260200160002060010160149054906101000a900460ff16600581111561106e57fe5b600160008a815260200190815260200160002060010160159054906101000a900460ff16600581111561109d57fe5b600160008b8152602001908152602001600020600201600160008c815260200190815260200160002060030160009054906101000a900460ff16600d8111156110e257fe5b600160008d815260200190815260200160002060040154858054600181600116156101000203166002900480601f01602080910402602001604051908101604052809291908181526020018280546001816001161561010002031660029004801561118e5780601f106111635761010080835404028352916020019161118e565b820191906000526020600020905b81548152906001019060200180831161117157829003601f168201915b50505050509550828054600181600116156101000203166002900480601f01602080910402602001604051908101604052809291908181526020018280546001816001161561010002031660029004801561122a5780601f106111ff5761010080835404028352916020019161122a565b820191906000526020600020905b81548152906001019060200180831161120d57829003601f168201915b5050505050925095509550955095509550955091939550919395565b60003373ffffffffffffffffffffffffffffffffffffffff166001600084815260200190815260200160002060010160009054906101000a900473ffffffffffffffffffffffffffffffffffffffff1673ffffffffffffffffffffffffffffffffffffffff1614156112bb57600190506112c0565b600090505b919050565b60006002600083815260200190815260200160002060003373ffffffffffffffffffffffffffffffffffffffff1673ffffffffffffffffffffffffffffffffffffffff16815260200190815260200160002060009054906101000a900460ff166113f55760016002600084815260200190815260200160002060003373ffffffffffffffffffffffffffffffffffffffff1673ffffffffffffffffffffffffffffffffffffffff16815260200190815260200160002060006101000a81548160ff02191690831515021790555060016000838152602001908152602001600020600401600081548092919060010191905055507f4a5c4f019c8a9e3d29977b4d5c0aca2af330cb93c8f1b3b884d66de89674c37060016040518082815260200191505060405180910390a16114be565b60006002600084815260200190815260200160002060003373ffffffffffffffffffffffffffffffffffffffff1673ffffffffffffffffffffffffffffffffffffffff16815260200190815260200160002060006101000a81548160ff0219169083151502179055506001600083815260200190815260200160002060040160008154809291906001900391905055507f4a5c4f019c8a9e3d29977b4d5c0aca2af330cb93c8f1b3b884d66de89674c37060006040518082815260200191505060405180910390a15b60016000838152602001908152602001600020600401549050919050565b6060806000546040519080825280602002602001820160405280156115105781602001602082028038833980820191505090505b50905060008090505b6000548110156115ac576002600082815260200190815260200160002060003373ffffffffffffffffffffffffffffffffffffffff1673ffffffffffffffffffffffffffffffffffffffff16815260200190815260200160002060009054906101000a900460ff1682828151811061158d57fe5b6020026020010190151590811515815250508080600101915050611519565b508091505090565b6000548610611777576040518060e00160405280888152602001600073ffffffffffffffffffffffffffffffffffffffff1681526020018660058111156115f757fe5b600581111561160257fe5b815260200185600581111561161357fe5b600581111561161e57fe5b815260200184815260200183600d81111561163557fe5b600d81111561164057fe5b8152602001828152506001600088815260200190815260200160002060008201518160000190805190602001906116789291906117a2565b5060208201518160010160006101000a81548173ffffffffffffffffffffffffffffffffffffffff021916908373ffffffffffffffffffffffffffffffffffffffff16021790555060408201518160010160146101000a81548160ff021916908360058111156116e457fe5b021790555060608201518160010160156101000a81548160ff0219169083600581111561170d57fe5b0217905550608082015181600201908051906020019061172e9291906117a2565b5060a08201518160030160006101000a81548160ff0219169083600d81111561175357fe5b021790555060c0820151816004015590505060008081548092919060010191905055505b50505050505050565b6000611794866000548787878760006115b4565b600054905095945050505050565b828054600181600116156101000203166002900490600052602060002090601f016020900481019282601f106117e357805160ff1916838001178555611811565b82800160010185558215611811579182015b828111156118105782518255916020019190600101906117f5565b5b50905061181e9190611822565b5090565b61184491905b80821115611840576000816000905550600101611828565b5090565b9056fea265627a7a7231582075ac0da49d8c3c486a27e6e456ef642c6feef964b30bfeee737722b0ca28073b64736f6c63430005100032",
  "source": "// SPDX-License-Identifier: CC-BY-SA-4.0\r\n\r\n// Version of Solidity compiler this program was written for\r\npragma solidity ^0.5.0;\r\n\r\n// Our first contract is a faucet!\r\ncontract Faucet {\r\n\r\n    uint pet_count = 0;\r\n    enum AgeGroup{ALL, ZERO, ONE, TWO, THREE, FOURNPLUS}\r\n    enum BreedGroup{ALL, B1, B2, B3, B4, OTHER}\r\n    enum LocationGroup{ALL, AB, BC, MB, NB, NL, NT, NS, NU, ON, PE, QC, SK, YT}\r\n    enum AdoptionStatus{ALL, ADOPTED, UNADOPTED}\r\n\r\n    struct Pet{\r\n        string petName;\r\n        address owner;\r\n        AgeGroup age;\r\n        BreedGroup breed;\r\n        string city;\r\n        LocationGroup location;\r\n        uint votes;\r\n    }\r\n\r\n    event VOTE_MSG(\r\n        uint status\r\n    );\r\n\r\n    mapping (uint => Pet) pets;\r\n    mapping (uint => mapping (address => bool)) votes;\r\n    \r\n    function insert_pet(string memory petName, uint id, uint age, uint breed, string memory city, uint location, uint pet_votes) public {\r\n        if (id >= pet_count){\r\n            pets[id] = Pet(petName, address(0),AgeGroup(age),BreedGroup(breed),city,LocationGroup(location),pet_votes);\r\n            pet_count++;\r\n        }   \r\n    }\r\n    \r\n    // add a new pet\r\n    function register_new_pet(string memory petName, uint age, uint breed, string memory city, uint location) public payable returns (uint) {\r\n        insert_pet(petName, pet_count, age, breed, city, location, 0);\r\n        // return the id of this pet\r\n        return pet_count;\r\n    }\r\n    // adopt a pet\r\n    function adopt(uint id) public {\r\n        pets[id].owner = msg.sender;\r\n    }\r\n\r\n    function return_pet(uint id) public payable {\r\n        pets[id].owner = address(0);\r\n    }\r\n\r\n    // unvote it if the user already voted this pet, vote it otherwise\r\n    function vote_unvote(uint id) public returns (uint) {\r\n        if (!votes[id][msg.sender]){\r\n            votes[id][msg.sender] = true;\r\n            pets[id].votes++;\r\n            emit VOTE_MSG(1);\r\n            \r\n        }else{\r\n            votes[id][msg.sender] = false;\r\n            pets[id].votes--;\r\n            emit VOTE_MSG(0);\r\n        }\r\n        return pets[id].votes;\r\n    }\r\n\r\n    function get_pet_vote(uint id) public view returns (uint) {\r\n        return pets[id].votes;\r\n    }\r\n    \r\n    function is_voted(uint id) public view returns (bool) {\r\n        return votes[id][msg.sender];\r\n    }\r\n\r\n    // get the votes for pet with id\r\n    function get_voted_pets() public view returns(bool[] memory){\r\n        bool[] memory result = new bool[](pet_count);\r\n        for (uint i = 0; i < pet_count; i++) {\r\n           result[i] = votes[i][msg.sender];\r\n       }\r\n       return result;\r\n    }\r\n\r\n    // Retrieving the adopters\r\n    function getAdopters() public view returns (address[] memory) {\r\n       address[] memory result = new address[](pet_count);\r\n       for (uint i = 0; i < pet_count; i++) {\r\n           result[i] = pets[i].owner;\r\n       }\r\n       return result;\r\n    }\r\n\r\n    function is_adopted(uint id) public view returns (bool) {\r\n        if (pets[id].owner == msg.sender){\r\n            return true;\r\n        }\r\n        return false;\r\n    } \r\n\r\n    function getPetById(uint id) public view returns (string memory, uint, uint, string memory, uint, uint){\r\n        require(id < pet_count);\r\n        return (pets[id].petName,\r\n                uint(pets[id].age),\r\n                uint(pets[id].breed),\r\n                pets[id].city,\r\n                uint(pets[id].location),\r\n                pets[id].votes);\r\n    }\r\n\r\n    // Retrieving the adopters\r\n    function getMyPets() public view returns (bool[] memory) {\r\n       bool[] memory result = new bool[](pet_count);\r\n       for (uint i = 0; i < pet_count; i++) {\r\n           if (pets[i].owner == msg.sender){\r\n               result[i] = true;\r\n           }\r\n       }\r\n       return result;\r\n    }\r\n\r\n    // get pet info\r\n    function get_info() public view returns (uint) {\r\n        return pet_count;\r\n    }\r\n\r\n    // filter_pet function takes 4 decision variables to filter the pet to render\r\n    // adopted has three states 0 - ALL, 1 - Adopted, 2 - Not Adopted\r\n    // age, breed, location all have 6 states, refer to enum above\r\n    function filter_pets(uint adopted, uint age, uint breed, uint location, uint own_by_me) public view returns (bool[] memory){\r\n        bool[] memory result = new bool[](pet_count);\r\n        for (uint i = 0; i < pet_count; i++) {\r\n            result[i] = true;\r\n            // check if fall in the filter option\r\n            // adopted 3 options: 0 - both  1 - adopted 2 - not adopted\r\n            if (adopted == 2 && pets[i].owner != address(0) || adopted == 1 && pets[i].owner == address(0)){\r\n                result[i] = false;\r\n                continue;\r\n            }\r\n            if (age != uint(AgeGroup.ALL) && uint(pets[i].age) != age){\r\n                result[i] = false;\r\n                continue;\r\n            }\r\n            // use enum or int to represent here\r\n            if (breed != uint(BreedGroup.ALL) && uint(pets[i].breed) != breed){\r\n                result[i] = false;\r\n                continue;\r\n            }\r\n            if (location != uint(LocationGroup.ALL) && uint(pets[i].location) != location){\r\n                result[i] = false;\r\n                continue;\r\n            }\r\n            if ((own_by_me == 1 && pets[i].owner != msg.sender) || (own_by_me == 2 && pets[i].owner == msg.sender)){\r\n                result[i] = false;\r\n                continue;\r\n            }\r\n        }\r\n        return result;\r\n    }\r\n\r\n}",
  "sourcePath": "C:\\Users\\wangl\\Downloads\\pet-shop-box-master\\contracts\\Faucet.sol",
  "compiler": {
    "name": "solc",
    "version": "0.5.16+commit.9c3226ce.Emscripten.clang"
  },
  "schemaVersion": "3.4.15",
  "updatedAt": "2023-08-18T21:01:39.355Z",
  "networkType": "ethereum",
  "devdoc": {
    "methods": {}
  },
  "userdoc": {
    "methods": {}
  }
}